{
  "_format": "hh-sol-artifact-1",
  "contractName": "Certificate",
  "sourceName": "contracts/Certificate.sol",
  "abi": [
    {
      "inputs": [
        {
          "internalType": "address",
          "name": "recipient",
          "type": "address"
        }
      ],
      "name": "getCertificates",
      "outputs": [
        {
          "internalType": "string[]",
          "name": "",
          "type": "string[]"
        }
      ],
      "stateMutability": "view",
      "type": "function"
    },
    {
      "inputs": [
        {
          "internalType": "address",
          "name": "recipient",
          "type": "address"
        },
        {
          "internalType": "string",
          "name": "message",
          "type": "string"
        }
      ],
      "name": "issueCertificate",
      "outputs": [],
      "stateMutability": "nonpayable",
      "type": "function"
    }
  ],
  "bytecode": "0x608060405234801561001057600080fd5b50610841806100206000396000f3fe608060405234801561001057600080fd5b50600436106100365760003560e01c8063bb721aab1461003b578063f1c49c6214610057575b600080fd5b610055600480360381019061005091906102ea565b610087565b005b610071600480360381019061006c919061034a565b610106565b60405161007e91906104c9565b60405180910390f35b6000808473ffffffffffffffffffffffffffffffffffffffff1673ffffffffffffffffffffffffffffffffffffffff16815260200190815260200160002082829091806001815401808255809150506001900390600052602060002001600090919290919290919290919250918261010092919061073b565b50505050565b60606000808373ffffffffffffffffffffffffffffffffffffffff1673ffffffffffffffffffffffffffffffffffffffff168152602001908152602001600020805480602002602001604051908101604052809291908181526020016000905b8282101561021257838290600052602060002001805461018590610554565b80601f01602080910402602001604051908101604052809291908181526020018280546101b190610554565b80156101fe5780601f106101d3576101008083540402835291602001916101fe565b820191906000526020600020905b8154815290600101906020018083116101e157829003601f168201915b505050505081526020019060010190610166565b505050509050919050565b600080fd5b600080fd5b600073ffffffffffffffffffffffffffffffffffffffff82169050919050565b600061025282610227565b9050919050565b61026281610247565b811461026d57600080fd5b50565b60008135905061027f81610259565b92915050565b600080fd5b600080fd5b600080fd5b60008083601f8401126102aa576102a9610285565b5b8235905067ffffffffffffffff8111156102c7576102c661028a565b5b6020830191508360018202830111156102e3576102e261028f565b5b9250929050565b6000806000604084860312156103035761030261021d565b5b600061031186828701610270565b935050602084013567ffffffffffffffff81111561033257610331610222565b5b61033e86828701610294565b92509250509250925092565b6000602082840312156103605761035f61021d565b5b600061036e84828501610270565b91505092915050565b600081519050919050565b600082825260208201905092915050565b6000819050602082019050919050565b600081519050919050565b600082825260208201905092915050565b60005b838110156103dd5780820151818401526020810190506103c2565b60008484015250505050565b6000601f19601f8301169050919050565b6000610405826103a3565b61040f81856103ae565b935061041f8185602086016103bf565b610428816103e9565b840191505092915050565b600061043f83836103fa565b905092915050565b6000602082019050919050565b600061045f82610377565b6104698185610382565b93508360208202850161047b85610393565b8060005b858110156104b757848403895281516104988582610433565b94506104a383610447565b925060208a0199505060018101905061047f565b50829750879550505050505092915050565b600060208201905081810360008301526104e38184610454565b905092915050565b600082905092915050565b7f4e487b7100000000000000000000000000000000000000000000000000000000600052604160045260246000fd5b7f4e487b7100000000000000000000000000000000000000000000000000000000600052602260045260246000fd5b6000600282049050600182168061056c57607f821691505b60208210810361057f5761057e610525565b5b50919050565b60008190508160005260206000209050919050565b60006020601f8301049050919050565b600082821b905092915050565b6000600883026105e77fffffffffffffffffffffffffffffffffffffffffffffffffffffffffffffffff826105aa565b6105f186836105aa565b95508019841693508086168417925050509392505050565b6000819050919050565b6000819050919050565b600061063861063361062e84610609565b610613565b610609565b9050919050565b6000819050919050565b6106528361061d565b61066661065e8261063f565b8484546105b7565b825550505050565b600090565b61067b61066e565b610686818484610649565b505050565b5b818110156106aa5761069f600082610673565b60018101905061068c565b5050565b601f8211156106ef576106c081610585565b6106c98461059a565b810160208510156106d8578190505b6106ec6106e48561059a565b83018261068b565b50505b505050565b600082821c905092915050565b6000610712600019846008026106f4565b1980831691505092915050565b600061072b8383610701565b9150826002028217905092915050565b61074583836104eb565b67ffffffffffffffff81111561075e5761075d6104f6565b5b6107688254610554565b6107738282856106ae565b6000601f8311600181146107a25760008415610790578287013590505b61079a858261071f565b865550610802565b601f1984166107b086610585565b60005b828110156107d8578489013582556001820191506020850194506020810190506107b3565b868310156107f557848901356107f1601f891682610701565b8355505b6001600288020188555050505b5050505050505056fea2646970667358221220978f2f41e37708a73eb43891d166416297757a7e104456bcbcf0f4774615a5e764736f6c63430008140033",
  "linkReferences": {},
  "deployedLinkReferences": {}
}